{
  "contractName": "PollCreation",
  "abi": [
    {
      "constant": true,
      "inputs": [],
      "name": "pollOwner",
      "outputs": [
        {
          "name": "",
          "type": "address"
        }
      ],
      "payable": false,
      "stateMutability": "view",
      "type": "function",
      "signature": "0x285ad937"
    },
    {
      "constant": true,
      "inputs": [],
      "name": "timeAlottedForVoting",
      "outputs": [
        {
          "name": "",
          "type": "uint256"
        }
      ],
      "payable": false,
      "stateMutability": "view",
      "type": "function",
      "signature": "0x4b955058"
    },
    {
      "constant": true,
      "inputs": [],
      "name": "numberofVoters",
      "outputs": [
        {
          "name": "",
          "type": "uint256"
        }
      ],
      "payable": false,
      "stateMutability": "view",
      "type": "function",
      "signature": "0x663b508f"
    },
    {
      "constant": true,
      "inputs": [],
      "name": "numberofPolls",
      "outputs": [
        {
          "name": "",
          "type": "uint256"
        }
      ],
      "payable": false,
      "stateMutability": "view",
      "type": "function",
      "signature": "0x75a05a65"
    },
    {
      "constant": true,
      "inputs": [],
      "name": "pollVotingStarts",
      "outputs": [
        {
          "name": "",
          "type": "uint256"
        }
      ],
      "payable": false,
      "stateMutability": "view",
      "type": "function",
      "signature": "0x8d743f09"
    },
    {
      "constant": true,
      "inputs": [
        {
          "name": "",
          "type": "address"
        }
      ],
      "name": "voters",
      "outputs": [
        {
          "name": "voted",
          "type": "bool"
        },
        {
          "name": "vote",
          "type": "uint256"
        },
        {
          "name": "canVote",
          "type": "bool"
        }
      ],
      "payable": false,
      "stateMutability": "view",
      "type": "function",
      "signature": "0xa3ec138d"
    },
    {
      "constant": true,
      "inputs": [],
      "name": "pollStatus",
      "outputs": [
        {
          "name": "",
          "type": "string"
        }
      ],
      "payable": false,
      "stateMutability": "view",
      "type": "function",
      "signature": "0xa9a3e095"
    },
    {
      "constant": true,
      "inputs": [
        {
          "name": "",
          "type": "uint256"
        }
      ],
      "name": "polls",
      "outputs": [
        {
          "name": "pollName",
          "type": "bytes32"
        },
        {
          "name": "voteCount",
          "type": "uint256"
        }
      ],
      "payable": false,
      "stateMutability": "view",
      "type": "function",
      "signature": "0xac2f0074"
    },
    {
      "inputs": [
        {
          "name": "nameOfPolls",
          "type": "bytes32[]"
        },
        {
          "name": "_timeAlottedForVoting",
          "type": "uint256"
        }
      ],
      "payable": false,
      "stateMutability": "nonpayable",
      "type": "constructor",
      "signature": "constructor"
    },
    {
      "constant": true,
      "inputs": [],
      "name": "getPollStatus",
      "outputs": [
        {
          "name": "",
          "type": "string"
        }
      ],
      "payable": false,
      "stateMutability": "view",
      "type": "function",
      "signature": "0x883032e8"
    },
    {
      "constant": false,
      "inputs": [
        {
          "name": "_pollStatus",
          "type": "string"
        }
      ],
      "name": "setPollStatus",
      "outputs": [],
      "payable": false,
      "stateMutability": "nonpayable",
      "type": "function",
      "signature": "0xce06ed46"
    },
    {
      "constant": false,
      "inputs": [
        {
          "name": "voter",
          "type": "address"
        }
      ],
      "name": "RightToVote",
      "outputs": [],
      "payable": false,
      "stateMutability": "nonpayable",
      "type": "function",
      "signature": "0x445cf9bf"
    },
    {
      "constant": false,
      "inputs": [
        {
          "name": "poll",
          "type": "uint256"
        }
      ],
      "name": "vote",
      "outputs": [],
      "payable": false,
      "stateMutability": "nonpayable",
      "type": "function",
      "signature": "0x0121b93f"
    },
    {
      "constant": true,
      "inputs": [],
      "name": "returnWinningPoll",
      "outputs": [
        {
          "name": "winningPoll",
          "type": "uint256"
        },
        {
          "name": "nameofPolls",
          "type": "bytes32"
        }
      ],
      "payable": false,
      "stateMutability": "view",
      "type": "function",
      "signature": "0x6b42b5d5"
    }
  ],
  "bytecode": "0x608060405234801561001057600080fd5b50604051610d42380380610d428339810180604052604081101561003357600080fd5b81019080805164010000000081111561004b57600080fd5b8281019050602081018481111561006157600080fd5b815185602082028301116401000000008211171561007e57600080fd5b505092919060200180519060200190929190505050336000806101000a81548173ffffffffffffffffffffffffffffffffffffffff021916908373ffffffffffffffffffffffffffffffffffffffff1602179055506001600560008060009054906101000a900473ffffffffffffffffffffffffffffffffffffffff1673ffffffffffffffffffffffffffffffffffffffff1673ffffffffffffffffffffffffffffffffffffffff16815260200190815260200160002060020160006101000a81548160ff021916908315150217905550426001819055508060028190555081516008819055506040805190810160405280600f81526020017f4f70656e20666f7220566f74696e670000000000000000000000000000000000815250600390805190602001906101b0929190610261565b506000600460006101000a81548160ff021916908315150217905550600060078190555060008090505b8251811015610259576101eb6102e1565b60066000838152602001908152602001600020604080519081016040529081600082015481526020016001820154815250509050838281518110151561022d57fe5b9060200190602002015181600001818152505060008160200181815250505080806001019150506101da565b505050610323565b828054600181600116156101000203166002900490600052602060002090601f016020900481019282601f106102a257805160ff19168380011785556102d0565b828001600101855582156102d0579182015b828111156102cf5782518255916020019190600101906102b4565b5b5090506102dd91906102fe565b5090565b604080519081016040528060008019168152602001600081525090565b61032091905b8082111561031c576000816000905550600101610304565b5090565b90565b610a10806103326000396000f3fe6080604052600436106100c5576000357c0100000000000000000000000000000000000000000000000000000000900463ffffffff1680630121b93f146100ca578063285ad93714610105578063445cf9bf1461015c5780634b955058146101ad578063663b508f146101d85780636b42b5d51461020357806375a05a6514610235578063883032e8146102605780638d743f09146102f0578063a3ec138d1461031b578063a9a3e09514610396578063ac2f007414610426578063ce06ed461461047c575b600080fd5b3480156100d657600080fd5b50610103600480360360208110156100ed57600080fd5b8101908080359060200190929190505050610544565b005b34801561011157600080fd5b5061011a6105f7565b604051808273ffffffffffffffffffffffffffffffffffffffff1673ffffffffffffffffffffffffffffffffffffffff16815260200191505060405180910390f35b34801561016857600080fd5b506101ab6004803603602081101561017f57600080fd5b81019080803573ffffffffffffffffffffffffffffffffffffffff16906020019092919050505061061c565b005b3480156101b957600080fd5b506101c26106d5565b6040518082815260200191505060405180910390f35b3480156101e457600080fd5b506101ed6106db565b6040518082815260200191505060405180910390f35b34801561020f57600080fd5b506102186106e1565b604051808381526020018281526020019250505060405180910390f35b34801561024157600080fd5b5061024a610771565b6040518082815260200191505060405180910390f35b34801561026c57600080fd5b50610275610777565b6040518080602001828103825283818151815260200191508051906020019080838360005b838110156102b557808201518184015260208101905061029a565b50505050905090810190601f1680156102e25780820380516001836020036101000a031916815260200191505b509250505060405180910390f35b3480156102fc57600080fd5b50610305610819565b6040518082815260200191505060405180910390f35b34801561032757600080fd5b5061036a6004803603602081101561033e57600080fd5b81019080803573ffffffffffffffffffffffffffffffffffffffff16906020019092919050505061081f565b604051808415151515815260200183815260200182151515158152602001935050505060405180910390f35b3480156103a257600080fd5b506103ab610863565b6040518080602001828103825283818151815260200191508051906020019080838360005b838110156103eb5780820151818401526020810190506103d0565b50505050905090810190601f1680156104185780820380516001836020036101000a031916815260200191505b509250505060405180910390f35b34801561043257600080fd5b5061045f6004803603602081101561044957600080fd5b8101908080359060200190929190505050610901565b604051808381526020018281526020019250505060405180910390f35b34801561048857600080fd5b506105426004803603602081101561049f57600080fd5b81019080803590602001906401000000008111156104bc57600080fd5b8201836020820111156104ce57600080fd5b803590602001918460018302840111640100000000831117156104f057600080fd5b91908080601f016020809104026020016040519081016040528093929190818152602001838380828437600081840152601f19601f820116905080830192505050505050509192919290505050610925565b005b6002546001540142111561055757600080fd5b6000600560003373ffffffffffffffffffffffffffffffffffffffff1673ffffffffffffffffffffffffffffffffffffffff16815260200190815260200160002090508060000160009054906101000a900460ff16156105b657600080fd5b60018160000160006101000a81548160ff02191690831515021790555081816001018190555060016006600084815260200190815260200160002050505050565b6000809054906101000a900473ffffffffffffffffffffffffffffffffffffffff1681565b6000809054906101000a900473ffffffffffffffffffffffffffffffffffffffff1673ffffffffffffffffffffffffffffffffffffffff163373ffffffffffffffffffffffffffffffffffffffff1614151561067757600080fd5b6001600560008373ffffffffffffffffffffffffffffffffffffffff1673ffffffffffffffffffffffffffffffffffffffff16815260200190815260200160002060020160006101000a81548160ff02191690831515021790555050565b60025481565b60075481565b60008060025460015401421115156106f857600080fd5b600080600090505b60085481101561076b57816006600083815260200190815260200160002060010154111561075e5760066000828152602001908152602001600020600101549150809350600660008281526020019081526020016000206000015492505b8080600101915050610700565b50509091565b60085481565b606060038054600181600116156101000203166002900480601f01602080910402602001604051908101604052809291908181526020018280546001816001161561010002031660029004801561080f5780601f106107e45761010080835404028352916020019161080f565b820191906000526020600020905b8154815290600101906020018083116107f257829003601f168201915b5050505050905090565b60015481565b60056020528060005260406000206000915090508060000160009054906101000a900460ff16908060010154908060020160009054906101000a900460ff16905083565b60038054600181600116156101000203166002900480601f0160208091040260200160405190810160405280929190818152602001828054600181600116156101000203166002900480156108f95780601f106108ce576101008083540402835291602001916108f9565b820191906000526020600020905b8154815290600101906020018083116108dc57829003601f168201915b505050505081565b60066020528060005260406000206000915090508060000154908060010154905082565b806003908051906020019061093b92919061093f565b5050565b828054600181600116156101000203166002900490600052602060002090601f016020900481019282601f1061098057805160ff19168380011785556109ae565b828001600101855582156109ae579182015b828111156109ad578251825591602001919060010190610992565b5b5090506109bb91906109bf565b5090565b6109e191905b808211156109dd5760008160009055506001016109c5565b5090565b9056fea165627a7a723058203a8bdb0536ebbd4aba35658d6eb316ef7597c9e37555ee7fd30e7506a2011e7a0029",
  "source": "pragma solidity ^0.5.0;\r\n\r\n/*We are creating our contract Poll Creation as outlined in our Project Proposal\r\n*/\r\ncontract PollCreation{\r\n//This struct represents the information we need to have for Voters in our Polling decentralized application\r\n    struct Voter{\r\n        bool voted; //Has this voter already voted?\r\n        uint vote; //which poll voted on\r\n        bool canVote; //Can this user vote on poll\r\n    }\r\n    \r\n    //Creating the polls to be voted on\r\n    struct Poll{\r\n        bytes32 pollName; //Small Poll size names\r\n        uint voteCount; //number of votes\r\n    }\r\n    \r\n    \r\n    //------------------------State Variables-------------------------\r\n\t//Creator of the contract. Will be used to set limits on fuction usage.\r\n    address public pollOwner;\r\n    uint public pollVotingStarts;\r\n    //Amount of time the poll will be open for. Initialized in PollCreation constructor below.\r\n    uint public timeAlottedForVoting;\r\n    //Status of the Poll created\r\n    string public pollStatus;\r\n    //Checks if poll is open or not\r\n    bool pollEnded;\r\n    //For Voters \r\n    mapping(address => Voter) public voters;\r\n    //For Polls\r\n    mapping(uint => Poll) public polls;\r\n    //Count the number of voters\r\n    uint public numberofVoters;\r\n    //Count number of Polls created\r\n    uint public numberofPolls;\r\n    \r\n\t\r\n\t//The modifier allows us to check for condition before executing a function\r\n\t//This modifier will only allow the Poll Creator to execute the functions\r\n\t\r\n\tmodifier pollCreator()\r\n\t{\r\n\t    //Will not steal gas , more forgiving. Refunds gas.\r\n\t\trequire(msg.sender == pollOwner);\r\n\t\t_; //Represents the rest of the code being ran\r\n\t\t\r\n\t}\r\n\t\r\n\tconstructor(bytes32[] memory nameOfPolls, uint _timeAlottedForVoting) public{\r\n\t    //The owner of the poll is person who initiatied this contract\r\n\t    pollOwner = msg.sender;\r\n\t    //Give the creator the the poll the right to vote\r\n\t    voters[pollOwner].canVote = true;\r\n\t    //Begin the poll timer\r\n\t    pollVotingStarts = now;\r\n\t    //Retrieve value from the constructor\r\n\t    timeAlottedForVoting = _timeAlottedForVoting;\r\n\t    //Count number of polls created'\r\n\t    numberofPolls = nameOfPolls.length;\r\n\t    //Create poll status\r\n\t    pollStatus = \"Open for Voting\";\r\n\t    //Set pollEnded boolean value\r\n\t    pollEnded = false;\r\n\t    numberofVoters = 0;\r\n\t    \r\n\t    for(uint i=0; i<nameOfPolls.length; i++){\r\n\t        Poll memory p = polls[i];\r\n\t        p.pollName = nameOfPolls[i];\r\n\t        p.voteCount = 0;\r\n\t    }\r\n\t    \r\n\t}\r\n\t\r\n\tfunction getPollStatus() view public returns(string memory) {\r\n\t\treturn pollStatus;\r\n\t}\r\n\r\n\tfunction setPollStatus(string memory _pollStatus) public {\r\n\t\tpollStatus = _pollStatus;\r\n\t}\r\n\r\n\t//Change address voter to an array I can pass? Maybe add a paramter to voter to classify?\r\n\tfunction RightToVote(address voter) public pollCreator(){\r\n\t    voters[voter].canVote = true;\r\n\t}\r\n\t\r\n\tfunction vote(uint poll) public{\r\n\t    //Ensure that the poll hasn't ended. Maybe add in the poll ended boolean?\r\n\t    if (now > pollVotingStarts + timeAlottedForVoting){\r\n\t        revert();\r\n\t    }\r\n\t    //Record the person who has voted\r\n\t    Voter storage userVoting = voters[msg.sender];\r\n\t    \r\n\t    if(userVoting.voted){\r\n\t        //Do not Allow double voting\r\n\t        revert();\r\n\t    }\r\n\t    userVoting.voted = true;\r\n\t    userVoting.vote = poll;\r\n\t    \r\n\t    polls[poll].voteCount+1;\r\n\t}\r\n\t\r\n\tfunction returnWinningPoll() view public\r\n\t    returns(uint winningPoll, bytes32 nameofPolls)\r\n\t\r\n\t{//Check voting has ended.\r\n\tif(now <= pollVotingStarts + timeAlottedForVoting) revert(); //If it hasn't throw error\r\n\t\r\n\tuint winningPollByVoteCount;\r\n\tfor(uint x=0; x< numberofPolls;x++){\r\n\t    if(polls[x].voteCount> winningPollByVoteCount){\r\n\t        winningPollByVoteCount = polls[x].voteCount;\r\n\t        winningPoll = x;\r\n\t        nameofPolls = polls[x].pollName;\r\n\t    }\r\n\t}\r\n\t\r\n\t\r\n\t}\r\n\t\r\n}\r\n",
  "sourcePath": "C:/dev/source/blockchain/eth-react-test/contracts/PollCreation.sol",
  "compiler": {
    "name": "solc",
    "version": "0.5.0+commit.1d4f565a.Emscripten.clang"
  },
  "schemaVersion": "3.0.6",
  "updatedAt": "2019-04-15T01:42:52.289Z",
  "devdoc": {
    "methods": {}
  },
  "userdoc": {
    "methods": {}
  }
}