{
  "contractName": "PollCreation",
  "abi": [
    {
      "constant": true,
      "inputs": [],
      "name": "pollOwner",
      "outputs": [
        {
          "name": "",
          "type": "address"
        }
      ],
      "payable": false,
      "stateMutability": "view",
      "type": "function"
    },
    {
      "constant": true,
      "inputs": [],
      "name": "timeAlottedForVoting",
      "outputs": [
        {
          "name": "",
          "type": "uint256"
        }
      ],
      "payable": false,
      "stateMutability": "view",
      "type": "function"
    },
    {
      "constant": true,
      "inputs": [],
      "name": "numberofVoters",
      "outputs": [
        {
          "name": "",
          "type": "uint256"
        }
      ],
      "payable": false,
      "stateMutability": "view",
      "type": "function"
    },
    {
      "constant": true,
      "inputs": [],
      "name": "numberofPolls",
      "outputs": [
        {
          "name": "",
          "type": "uint256"
        }
      ],
      "payable": false,
      "stateMutability": "view",
      "type": "function"
    },
    {
      "constant": true,
      "inputs": [],
      "name": "pollVotingStarts",
      "outputs": [
        {
          "name": "",
          "type": "uint256"
        }
      ],
      "payable": false,
      "stateMutability": "view",
      "type": "function"
    },
    {
      "constant": true,
      "inputs": [
        {
          "name": "",
          "type": "address"
        }
      ],
      "name": "voters",
      "outputs": [
        {
          "name": "voted",
          "type": "bool"
        },
        {
          "name": "vote",
          "type": "uint256"
        },
        {
          "name": "canVote",
          "type": "bool"
        }
      ],
      "payable": false,
      "stateMutability": "view",
      "type": "function"
    },
    {
      "constant": true,
      "inputs": [],
      "name": "pollStatus",
      "outputs": [
        {
          "name": "",
          "type": "string"
        }
      ],
      "payable": false,
      "stateMutability": "view",
      "type": "function"
    },
    {
      "constant": true,
      "inputs": [
        {
          "name": "",
          "type": "uint256"
        }
      ],
      "name": "polls",
      "outputs": [
        {
          "name": "pollName",
          "type": "bytes32"
        },
        {
          "name": "voteCount",
          "type": "uint256"
        }
      ],
      "payable": false,
      "stateMutability": "view",
      "type": "function"
    },
    {
      "inputs": [
        {
          "name": "nameOfPolls",
          "type": "bytes32[]"
        },
        {
          "name": "_timeAlottedForVoting",
          "type": "uint256"
        }
      ],
      "payable": false,
      "stateMutability": "nonpayable",
      "type": "constructor"
    },
    {
      "constant": false,
      "inputs": [
        {
          "name": "voter",
          "type": "address"
        }
      ],
      "name": "RightToVote",
      "outputs": [],
      "payable": false,
      "stateMutability": "nonpayable",
      "type": "function"
    },
    {
      "constant": false,
      "inputs": [
        {
          "name": "poll",
          "type": "uint256"
        }
      ],
      "name": "vote",
      "outputs": [],
      "payable": false,
      "stateMutability": "nonpayable",
      "type": "function"
    },
    {
      "constant": true,
      "inputs": [],
      "name": "returnWinningPoll",
      "outputs": [
        {
          "name": "winningPoll",
          "type": "uint256"
        },
        {
          "name": "nameofPolls",
          "type": "bytes32"
        }
      ],
      "payable": false,
      "stateMutability": "view",
      "type": "function"
    }
  ],
  "bytecode": "0x60806040526000805534801561001457600080fd5b50604051610a7b380380610a7b8339810180604052604081101561003757600080fd5b81019080805164010000000081111561004f57600080fd5b8281019050602081018481111561006557600080fd5b815185602082028301116401000000008211171561008257600080fd5b50509291906020018051906020019092919050505033600160006101000a81548173ffffffffffffffffffffffffffffffffffffffff021916908373ffffffffffffffffffffffffffffffffffffffff160217905550600160066000600160009054906101000a900473ffffffffffffffffffffffffffffffffffffffff1673ffffffffffffffffffffffffffffffffffffffff1673ffffffffffffffffffffffffffffffffffffffff16815260200190815260200160002060020160006101000a81548160ff021916908315150217905550426002819055508060038190555081516000819055506040805190810160405280600f81526020017f4f70656e20666f7220566f74696e670000000000000000000000000000000000815250600490805190602001906101b6929190610267565b506000600560006101000a81548160ff021916908315150217905550600060088190555060008090505b825181101561025f576101f16102e7565b60076000838152602001908152602001600020604080519081016040529081600082015481526020016001820154815250509050838281518110151561023357fe5b9060200190602002015181600001818152505060008160200181815250505080806001019150506101e0565b505050610329565b828054600181600116156101000203166002900490600052602060002090601f016020900481019282601f106102a857805160ff19168380011785556102d6565b828001600101855582156102d6579182015b828111156102d55782518255916020019190600101906102ba565b5b5090506102e39190610304565b5090565b604080519081016040528060008019168152602001600081525090565b61032691905b8082111561032257600081600090555060010161030a565b5090565b90565b610743806103386000396000f3fe6080604052600436106100af576000357c0100000000000000000000000000000000000000000000000000000000900463ffffffff1680630121b93f146100b4578063285ad937146100ef578063445cf9bf146101465780634b95505814610197578063663b508f146101c25780636b42b5d5146101ed57806375a05a651461021f5780638d743f091461024a578063a3ec138d14610275578063a9a3e095146102f0578063ac2f007414610380575b600080fd5b3480156100c057600080fd5b506100ed600480360360208110156100d757600080fd5b81019080803590602001909291905050506103d6565b005b3480156100fb57600080fd5b50610104610489565b604051808273ffffffffffffffffffffffffffffffffffffffff1673ffffffffffffffffffffffffffffffffffffffff16815260200191505060405180910390f35b34801561015257600080fd5b506101956004803603602081101561016957600080fd5b81019080803573ffffffffffffffffffffffffffffffffffffffff1690602001909291905050506104af565b005b3480156101a357600080fd5b506101ac610569565b6040518082815260200191505060405180910390f35b3480156101ce57600080fd5b506101d761056f565b6040518082815260200191505060405180910390f35b3480156101f957600080fd5b50610202610575565b604051808381526020018281526020019250505060405180910390f35b34801561022b57600080fd5b50610234610605565b6040518082815260200191505060405180910390f35b34801561025657600080fd5b5061025f61060b565b6040518082815260200191505060405180910390f35b34801561028157600080fd5b506102c46004803603602081101561029857600080fd5b81019080803573ffffffffffffffffffffffffffffffffffffffff169060200190929190505050610611565b604051808415151515815260200183815260200182151515158152602001935050505060405180910390f35b3480156102fc57600080fd5b50610305610655565b6040518080602001828103825283818151815260200191508051906020019080838360005b8381101561034557808201518184015260208101905061032a565b50505050905090810190601f1680156103725780820380516001836020036101000a031916815260200191505b509250505060405180910390f35b34801561038c57600080fd5b506103b9600480360360208110156103a357600080fd5b81019080803590602001909291905050506106f3565b604051808381526020018281526020019250505060405180910390f35b600354600254014211156103e957600080fd5b6000600660003373ffffffffffffffffffffffffffffffffffffffff1673ffffffffffffffffffffffffffffffffffffffff16815260200190815260200160002090508060000160009054906101000a900460ff161561044857600080fd5b60018160000160006101000a81548160ff02191690831515021790555081816001018190555060016007600084815260200190815260200160002050505050565b600160009054906101000a900473ffffffffffffffffffffffffffffffffffffffff1681565b600160009054906101000a900473ffffffffffffffffffffffffffffffffffffffff1673ffffffffffffffffffffffffffffffffffffffff163373ffffffffffffffffffffffffffffffffffffffff1614151561050b57600080fd5b6001600660008373ffffffffffffffffffffffffffffffffffffffff1673ffffffffffffffffffffffffffffffffffffffff16815260200190815260200160002060020160006101000a81548160ff02191690831515021790555050565b60035481565b60085481565b600080600354600254014211151561058c57600080fd5b600080600090505b6000548110156105ff5781600760008381526020019081526020016000206001015411156105f25760076000828152602001908152602001600020600101549150809350600760008281526020019081526020016000206000015492505b8080600101915050610594565b50509091565b60005481565b60025481565b60066020528060005260406000206000915090508060000160009054906101000a900460ff16908060010154908060020160009054906101000a900460ff16905083565b60048054600181600116156101000203166002900480601f0160208091040260200160405190810160405280929190818152602001828054600181600116156101000203166002900480156106eb5780601f106106c0576101008083540402835291602001916106eb565b820191906000526020600020905b8154815290600101906020018083116106ce57829003601f168201915b505050505081565b6007602052806000526040600020600091509050806000015490806001015490508256fea165627a7a723058200d52f2e6930b4c4d6059745b67c165535357900903ac97520e36300dd720c8db0029",
  "source": "pragma solidity ^0.5.0;\r\n\r\n/*We are creating our contract Poll Creation as outlined in our Project Proposal\r\n*/\r\ncontract PollCreation{\r\n\r\n//This struct represents the information we need to have for Voters in our Polling decentralized application\r\n    struct Voter{\r\n        bool voted; //Has this voter already voted?\r\n        uint vote; //which poll voted on\r\n        bool canVote; //Can this user vote on poll\r\n    }\r\n    \r\n    //Creating the polls to be voted on\r\n    struct Poll{\r\n        bytes32 pollName; //Small Poll size names\r\n        uint voteCount; //number of votes\r\n    }\r\n        //------------------------State Variables-------------------------\r\n    //Count number of Polls created\r\n    uint public numberofPolls=0;\t\r\n\t//Creator of the contract. Will be used to set limits on fuction usage.\r\n    address public pollOwner;\r\n    uint public pollVotingStarts;\r\n    //Amount of time the poll will be open for. Initialized in PollCreation constructor below.\r\n    uint public timeAlottedForVoting;\r\n    //Status of the Poll created\r\n    string public pollStatus;\r\n    //Checks if poll is open or not\r\n    bool pollEnded;\r\n    //For Voters \r\n    mapping(address => Voter) public voters;\r\n    //For Polls\r\n    mapping(uint => Poll) public polls;\r\n    //Count the number of voters\r\n    uint public numberofVoters;\r\n\r\n\r\n    \r\n    \r\n\t\r\n\t//The modifier allows us to check for condition before executing a function\r\n\t//This modifier will only allow the Poll Creator to execute the functions\r\n\t\r\n\tmodifier pollCreator()\r\n\t{\r\n\t    //Will not steal gas , more forgiving. Refunds gas.\r\n\t\trequire(msg.sender == pollOwner);\r\n\t\t_; //Represents the rest of the code being ran\r\n\t\t\r\n\t}\r\n\t\r\n\tconstructor(bytes32[] memory nameOfPolls, uint _timeAlottedForVoting) public{\r\n\t    //The owner of the poll is person who initiatied this contract\r\n\t    pollOwner = msg.sender;\r\n\t    //Give the creator the the poll the right to vote\r\n\t    voters[pollOwner].canVote = true;\r\n\t    //Begin the poll timer\r\n\t    pollVotingStarts = now;\r\n\t    //Retrieve value from the constructor\r\n\t    timeAlottedForVoting = _timeAlottedForVoting;\r\n\t    //Count number of polls created'\r\n\t    numberofPolls = nameOfPolls.length;\r\n\t    //Create poll status\r\n\t    pollStatus = \"Open for Voting\";\r\n\t    //Set pollEnded boolean value\r\n\t    pollEnded = false;\r\n\t    numberofVoters = 0;\r\n\t    \r\n\t    for(uint i=0; i<nameOfPolls.length; i++){\r\n\t        Poll memory p = polls[i];\r\n\t        p.pollName = nameOfPolls[i];\r\n\t        p.voteCount = 0;\r\n\t    }\r\n\t    \r\n\t}\r\n\t\r\n\t//Change address voter to an array I can pass? Maybe add a paramter to voter to classify?\r\n\tfunction RightToVote(address voter) public pollCreator(){\r\n\t    voters[voter].canVote = true;\r\n\t}\r\n\t\r\n\tfunction vote(uint poll) public{\r\n\t    //Ensure that the poll hasn't ended. Maybe add in the poll ended boolean?\r\n\t    if (now > pollVotingStarts + timeAlottedForVoting){\r\n\t        revert();\r\n\t    }\r\n\t    //Record the person who has voted\r\n\t    Voter storage userVoting = voters[msg.sender];\r\n\t    \r\n\t    if(userVoting.voted){\r\n\t        //Do not Allow double voting\r\n\t        revert();\r\n\t    }\r\n\t    userVoting.voted = true;\r\n\t    userVoting.vote = poll;\r\n\t    \r\n\t    polls[poll].voteCount+1;\r\n\t}\r\n\t\r\n\tfunction returnWinningPoll() view public\r\n\t    returns(uint winningPoll, bytes32 nameofPolls)\r\n\t\r\n\t{//Check voting has ended.\r\n\tif(now <= pollVotingStarts + timeAlottedForVoting) revert(); //If it hasn't throw error\r\n\t\r\n\tuint winningPollByVoteCount;\r\n\tfor(uint x=0; x< numberofPolls;x++){\r\n\t    if(polls[x].voteCount> winningPollByVoteCount){\r\n\t        winningPollByVoteCount = polls[x].voteCount;\r\n\t        winningPoll = x;\r\n\t        nameofPolls = polls[x].pollName;\r\n\t    }\r\n\t}\r\n\t\r\n\t\r\n\t}\r\n\t\r\n}\r\n",
  "sourcePath": "C:/Users/jpinder1/Documents/Blockchain And Applications/ElectiondApp/contracts/PollCreation.sol",
  "compiler": {
    "name": "solc",
    "version": "0.5.0+commit.1d4f565a.Emscripten.clang"
  },
  "schemaVersion": "3.0.1",
  "updatedAt": "2019-04-17T05:19:00.619Z",
  "devdoc": {
    "methods": {}
  },
  "userdoc": {
    "methods": {}
  }
}