{
  "contractName": "PollCreation",
  "abi": [
    {
      "constant": true,
      "inputs": [],
      "name": "owner",
      "outputs": [
        {
          "name": "",
          "type": "address"
        }
      ],
      "payable": false,
      "stateMutability": "view",
      "type": "function"
    },
    {
      "constant": false,
      "inputs": [
        {
          "name": "timeLimit",
          "type": "uint256"
        }
      ],
      "name": "PollCreator",
      "outputs": [],
      "payable": false,
      "stateMutability": "nonpayable",
      "type": "function"
    }
  ],
  "bytecode": "0x608060405234801561001057600080fd5b5061017d806100206000396000f3fe60806040526004361061004c576000357c0100000000000000000000000000000000000000000000000000000000900463ffffffff1680638da5cb5b14610051578063b23ee7a4146100a8575b600080fd5b34801561005d57600080fd5b506100666100e3565b604051808273ffffffffffffffffffffffffffffffffffffffff1673ffffffffffffffffffffffffffffffffffffffff16815260200191505060405180910390f35b3480156100b457600080fd5b506100e1600480360360208110156100cb57600080fd5b8101908080359060200190929190505050610108565b005b6000809054906101000a900473ffffffffffffffffffffffffffffffffffffffff1681565b336000806101000a81548173ffffffffffffffffffffffffffffffffffffffff021916908373ffffffffffffffffffffffffffffffffffffffff160217905550603c810290505056fea165627a7a72305820ed0169716cac1cfae3abf8cdf4f15f4ef556d7378ceb6c6258a77ce833134eb20029",
  "source": "pragma solidity ^0.5.0;\r\n\r\ncontract PollCreation{\r\n    struct Creator{\r\n        address addressofCreator;\r\n    }\r\n    address public owner;\r\n    bool ended;\r\n    uint [] allowedToVote;\r\n    //Create the Poll\r\n    function PollCreator(uint timeLimit) public {\r\n        owner = msg.sender;\r\n        timeLimit = timeLimit * 1 minutes;\r\n    }\r\n    //Choose the registered pool of users\r\n\r\n    \r\n    //The pool creator can vote\r\n    \r\n    //The pool creator can view results\r\n}\r\n\r\n",
  "sourcePath": "C:/Users/jpinder1/Documents/Blockchain And Applications/ElectiondApp/contracts/PollCreation.sol",
  "compiler": {
    "name": "solc",
    "version": "0.5.0+commit.1d4f565a.Emscripten.clang"
  },
  "schemaVersion": "3.0.0",
  "updatedAt": "2019-04-08T14:46:52.401Z",
  "devdoc": {
    "methods": {}
  },
  "userdoc": {
    "methods": {}
  }
}